:020000040800F2
:1000000000800120390400088904000889040008E0
:100010008904000889040008890400080000000021
:10002000000000000000000000000000890400083B
:100030008904000800000000890400088904000801
:1000400000000000890400088904000889040008F1
:10005000890400088904000889040008890400084C
:10006000890400088904000889040008890400083C
:10007000890400088904000889040008890400082C
:1000800089040008890400088904000800000000B1
:1000900000000000000000000000000089040008CB
:1000A00089040008890400088904000889040008FC
:1000B00089040008890400088904000889040008EC
:1000C00089040008890400088904000889040008DC
:1000D0008904000889040008890400080000000061
:1000E0008904000889040008890400080000000051
:1000F000000000000000000000000000890400086B
:100100000000000089040008890400088904000830
:1001100000000000000000000000000000000000DF
:10012000890400088904000889040008890400087B
:10013000890400080000000000000000000000002A
:10014000000000000000000000000000890400081A
:10015000890400088904000889040008890400084B
:100160008904000889040008000000000000000065
:10017000000000000000000000000000000000007F
:10018000000000000000000000000000000000006F
:0401900089040008D6
:1001940010B5054C237833B9044B13B10448AFF3BD
:1001A40000800123237010BD000000200000000027
:1001B400D404000808B5034B1BB103490348AFF34B
:1001C400008008BD0000000004000020D4040008E2
:1001D40080B582B000AF00F023F800F0E7F800F03B
:1001E40063F800F0A5F80B4B5B690A4A83F001033E
:1001F4005361094B5B69084A83F00203536100238E
:100204007B6002E07B6801337B607B68034A934236
:10021400F8DDE8E700000240000402401FA10700E7
:1002240080B400AF1E4B1B681D4A43F001031360EA
:100234001B4B9B681A4A23F003039360184B1B68FB
:10024400174A23F08073136000BF154B1B6803F03B
:100254000073002BF9D1124B1B68114A23F480332D
:10026400136000BF0E4B1B6803F40033002BF9D15D
:100274000B4B1B680A4A23F400231360084B094AFA
:100284005A60074B1B68064A23F480231360044B0F
:100294000022DA6000BFBD465DF8047B704700BFF2
:1002A400003802401030002480B400AF1F4B1B6C98
:1002B4001E4A43F0010313644FF080431B684FF060
:1002C400804223F0010313604FF0804353229A626B
:1002D4004FF0804342F2CF02DA624FF08043602253
:1002E4009A614FF080439B694FF0804243F00803CA
:1002F40093614FF080431B6A4FF0804243F0010347
:1003040013624FF080431B684FF0804243F0800338
:1003140013604FF080431B684FF0804243F00103A9
:10032400136000BFBD465DF8047B7047003802408F
:1003340080B400AF1B4B1B6C1A4A43F002031364D6
:10034400194B1B68184A23F001031360164B532200
:100354009A62154B42F2CF02DA62134B41F2670202
:100364001A64114B6022DA610F4BDB690E4A43F4C5
:100374000063D3610C4B1B6A0B4A43F48053136232
:10038400094B1B68084A43F080031360064B1B6843
:10039400054A43F00103136000BFBD465DF8047BCA
:1003A400704700BF003802400004004080B400AF32
:1003B4001D4B1B6B1C4A43F0030313631B4B1B684D
:1003C4001A4A23F003031360184B1B68174A43F0BF
:1003D40002031360164B1B68154A23F00C031360C9
:1003E400134B1B68124A43F0080313600F4B1B6A3C
:1003F4000E4A23F00F0313620C4B1B6A0B4A43F0A3
:10040400020313620A4B1B6A094A23F0F0031362C6
:10041400074B1B6A064A43F02003136200BFBD4624
:100424005DF8047B704700BF0038024000000240C2
:10043400000402400D488546FFF7F2FE0C480D49C2
:100444000D4A002302E0D458C4500433C4188C422B
:10045400F9D30A4A0A4C002301E013600432A24291
:10046400FBD300F011F8FFF7B3FEFEE70080012094
:100474000000002000000020F40400080000002018
:100484001C000020FEE7000070B50D4D0D4C641BF0
:10049400A4100026A64209D10B4D0C4C00F018F80C
:1004A400641BA4100026A64205D170BD55F8043B78
:1004B40098470136EEE755F8043B98470136F2E7D2
:1004C400EC040008EC040008EC040008F004000844
:1004D400F8B500BFF8BC08BC9E467047F8B500BF2D
:0804E400F8BC08BC9E467047FD
:0404EC00B90100084A
:0404F000950100086A
:0400000508000439B2
:00000001FF
