:020000040800F2
:10000000008001207D020008CD020008CD0200081A
:10001000CD020008CD020008CD020008000000005B
:10002000000000000000000000000000CD020008F9
:10003000CD02000800000000CD020008CD0200083B
:1000400000000000CD020008CD020008CD0200082B
:10005000CD020008CD020008CD020008CD02000844
:10006000CD020008CD020008CD020008CD02000834
:10007000CD020008CD020008CD020008CD02000824
:10008000CD020008CD020008CD02000800000000EB
:10009000000000000000000000000000CD02000889
:1000A000CD020008CD020008CD020008CD020008F4
:1000B000CD020008CD020008CD020008CD020008E4
:1000C000CD020008CD020008CD020008CD020008D4
:1000D000CD020008CD020008CD020008000000009B
:1000E000CD020008CD020008CD020008000000008B
:1000F000000000000000000000000000CD02000829
:1001000000000000CD020008CD020008CD0200086A
:1001100000000000000000000000000000000000DF
:10012000CD020008CD020008CD020008CD02000873
:10013000CD020008000000000000000000000000E8
:10014000000000000000000000000000CD020008D8
:10015000CD020008CD020008CD020008CD02000843
:10016000CD020008CD0200080000000000000000E1
:10017000000000000000000000000000000000007F
:10018000000000000000000000000000000000006F
:04019000CD02000894
:1001940010B5054C237833B9044B13B10448AFF3BD
:1001A40000800123237010BD000000200000000027
:1001B4001803000808B5034B1BB103490348AFF308
:1001C400008008BD0000000004000020180300089F
:1001D40080B483B000AF254B1B6B244A43F001036A
:1001E4001363224B1B6B214A43F004031363204B1C
:1001F4001B681F4A43F4806313601D4B1B681C4A31
:1002040023F4006313601B4B1B681A4A23F08063BA
:100214001360184B1B68174A23F000631360002314
:100224007B60144B1B6903F40053002B09D07B68DB
:1002340001337B6000BF0F4B1B6903F40053002B99
:10024400F9D17B68012B05D1094B5B69084A43F05E
:10025400200353617B68032BE3D1054B5B69044A9C
:1002640023F02003536100237B60DAE70038024067
:1002740000000240000802400D488546AFF30080AC
:100284000C480D490D4A002302E0D458C4500433ED
:10029400C4188C42F9D30A4A0A4C002301E01360C3
:1002A4000432A242FBD300F011F8FFF791FFFEE7FE
:1002B4000080012000000020000000203803000816
:1002C400000000201C000020FEE7000070B50D4D6A
:1002D4000D4C641BA4100026A64209D10B4D0C4CF6
:1002E40000F018F8641BA4100026A64205D170BDC6
:1002F40055F8043B98470136EEE755F8043B984718
:100304000136F2E730030008300300083003000828
:1003140034030008F8B500BFF8BC08BC9E4670471B
:0C032400F8B500BFF8BC08BC9E4670474E
:04033000B901000807
:040334009501000827
:040000050800027D70
:00000001FF
