:020000040800F2
:100000000080012069020008B9020008B902000856
:10001000B9020008B9020008B90200080000000097
:10002000000000000000000000000000B90200080D
:10003000B902000800000000B9020008B902000877
:1000400000000000B9020008B9020008B902000867
:10005000B9020008B9020008B9020008B902000894
:10006000B9020008B9020008B9020008B902000884
:10007000B9020008B9020008B9020008B902000874
:10008000B9020008B9020008B90200080000000027
:10009000000000000000000000000000B90200089D
:1000A000B9020008B9020008B9020008B902000844
:1000B000B9020008B9020008B9020008B902000834
:1000C000B9020008B9020008B9020008B902000824
:1000D000B9020008B9020008B902000800000000D7
:1000E000B9020008B9020008B902000800000000C7
:1000F000000000000000000000000000B90200083D
:1001000000000000B9020008B9020008B9020008A6
:1001100000000000000000000000000000000000DF
:10012000B9020008B9020008B9020008B9020008C3
:10013000B9020008000000000000000000000000FC
:10014000000000000000000000000000B9020008EC
:10015000B9020008B9020008B9020008B902000893
:10016000B9020008B9020008000000000000000009
:10017000000000000000000000000000000000007F
:10018000000000000000000000000000000000006F
:04019000B9020008A8
:1001940010B5054C237833B9044B13B10448AFF3BD
:1001A40000800123237010BD000000200000000027
:1001B4000403000808B5034B1BB103490348AFF31C
:1001C400008008BD000000000400002004030008B3
:1001D40080B483B000AF1F4B1B6B1E4A43F0010376
:1001E40013631D4B1B681C4A43F4806313601A4B52
:1001F4001B68194A23F400631360184B1B68174AE1
:1002040043F040031360154B1B68144A23F080032A
:100214001360114B5B69104A83F020035361002380
:100224007B6002E07B6801337B607B680C4A93420D
:10023400F8D90A4B5B69094A83F008035361002328
:100244007B6002E07B6801337B607B68044A9342F5
:10025400F8D9DEE700380240000002400004024002
:100264007F841E000D488546AFF300800C480D497D
:100274000D4A002302E0D458C4500433C4188C42FD
:10028400F9D30A4A0A4C002301E013600432A24263
:10029400FBD300F011F8FFF79BFFFEE7008001207D
:1002A40000000020000000202403000800000020BB
:1002B4001C000020FEE7000070B50D4D0D4C641BC2
:1002C400A4100026A64209D10B4D0C4C00F018F8DE
:1002D400641BA4100026A64205D170BD55F8043B4A
:1002E40098470136EEE755F8043B98470136F2E7A4
:1002F4001C0300081C0300081C030008200300085A
:10030400F8B500BFF8BC08BC9E467047F8B500BFFE
:08031400F8BC08BC9E467047CE
:04031C00B90100081B
:04032000950100083B
:040000050800026984
:00000001FF
