:020000040800F2
:1000000000800120550600082D0600082F06000874
:10001000310600083306000835060008000000001D
:10002000000000000000000000000000370600088B
:1000300039060008000000003B0600083D060008E5
:10004000A5060008A5060008A5060008A5060008E4
:10005000A5060008A5060008A5060008A5060008D4
:10006000A5060008A5060008A5060008A5060008C4
:10007000A5060008A5060008A5060008A5060008B4
:10008000A5060008A5060008A50600080000000057
:10009000000000000000000000000000A5060008AD
:1000A000A5060008A5060008A5060008A506000884
:1000B000A5060008A5060008A5060008A506000874
:1000C000A5060008A5060008A5060008A506000864
:1000D000A5060008A5060008A50600080000000007
:1000E000A5060008A5060008A506000800000000F7
:1000F000000000000000000000000000A50600084D
:1001000000000000A5060008A5060008A5060008D6
:1001100000000000000000000000000000000000DF
:10012000A5060008A5060008A5060008A506000803
:10013000A50600080000000000000000000000000C
:10014000000000000000000000000000A5060008FC
:10015000A5060008A5060008A5060008A5060008D3
:10016000A5060008A5060008000000000000000029
:10017000000000000000000000000000000000007F
:1001800000000000A50600080000000000000000BC
:04019000A5060008B8
:1001940010B5054C237833B9044B13B10448AFF3BD
:1001A40000800123237010BD0C000020000000001B
:1001B400080F000808B5034B1BB103490348AFF30C
:1001C400008008BD0000000010000020080F000897
:1001D40053B94AB9002908BF00281CBF4FF0FF31AA
:1001E4004FF0FF3000F074B9ADF1080C6DE904CEA6
:1001F40000F006F8DDF804E0DDE9022304B07047FE
:100204002DE9F047089D04468E46002B4DD18A42C5
:10021400944669D9B2FA82F252B101FA02F3C2F1F8
:10022400200120FA01F10CFA02FC41EA030E944089
:100234004FEA1C48210CBEFBF8F61FFA8CF708FBAA
:1002440016E341EA034306FB07F199420AD91CEB82
:10025400030306F1FF3080F01F81994240F21C81B4
:10026400023E63445B1AA4B2B3FBF8F008FB1033FC
:1002740044EA034400FB07F7A7420AD91CEB040431
:1002840000F1FF3380F00A81A74240F20781644401
:10029400023840EA0640E41B00261DB1D440002386
:1002A400C5E900433146BDE8F0878B4209D9002DEA
:1002B40000F0EF800026C5E9000130463146BDE874
:1002C400F087B3FA83F6002E4AD18B4202D38242DE
:1002D40000F2F980841A61EB030301209E46002D8D
:1002E400E0D0C5E9004EDDE702B9FFDEB2FA82F2E2
:1002F400002A40F09280A1EB0C014FEA1C471FFA40
:100304008CFE0126200CB1FBF7F307FB131140EA26
:1003140001410EFB03F0884208D91CEB010103F1F3
:10032400FF3802D2884200F2CB804346091AA4B2B5
:10033400B1FBF7F007FB101144EA01440EFB00FE89
:10034400A64508D91CEB040400F1FF3102D2A645EE
:1003540000F2BB800846A4EB0E0440EA03409CE78D
:10036400C6F12007B34022FA07FC4CEA030C20FA3A
:1003740007F401FA06F31C43F9404FEA1C4900FA5A
:1003840006F3B1FBF9F8200C1FFA8CFE09FB1811D7
:1003940040EA014108FB0EF0884202FA06F20BD94A
:1003A4001CEB010108F1FF3A80F08880884240F29A
:1003B4008580A8F102086144091AA4B2B1FBF9F0DE
:1003C40009FB101144EA014100FB0EFE8E4508D9D9
:1003D4001CEB010100F1FF346CD28E456AD902385E
:1003E400614440EA0840A0FB0294A1EB0E01A14243
:1003F400C846A64656D353D05DB1B3EB080261EBB1
:100404000E0101FA07F722FA06F3F1401F43C5E98A
:10041400007100263146BDE8F087C2F12003D840C0
:100424000CFA02FC21FA03F3914001434FEA1C4702
:100434001FFA8CFEB3FBF7F007FB10360B0C43EAF4
:10044400064300FB0EF69E4204FA02F408D91CEBA4
:10045400030300F1FF382FD29E422DD902386344A2
:100464009B1B89B2B3FBF7F607FB163341EA034142
:1004740006FB0EF38B4208D91CEB010106F1FF3891
:1004840016D28B4214D9023E6144C91A46EA004688
:1004940038E72E46284605E70646E3E61846F8E61A
:1004A4004B45A9D2B9EB020864EB0C0E0138A3E763
:1004B4004646EAE7204694E74046D1E7D0467BE744
:1004C400023B614432E7304609E76444023842E7BC
:1004D400704700BF00B595B02C22002109A800F098
:1004E40009FD1422002103A800F004FD00221A4B88
:1004F4000192196C41F0805119641B6C174903F087
:1005040080530193019B02920B6823F4404343F40C
:1005140000430B600B680E9203F440430293029B6A
:100524000223089301201023CDE90B0308A800F04F
:1005340043FA014608B172B6FEE70F23CDE9033052
:10054400CDE90500079003A800F014FC08B172B6C9
:10055400FEE715B05DF804FB00380240007000406F
:1005640000B589B000F0C2F8FFF7B4FF14220021EF
:1005740003A800F0BFFC00241B4B01941A6B1B481A
:1005840042F080021A631A6B02F080020192019A0F
:1005940002941A6B42F001021A631B6B03F001030D
:1005A400224602930121029B00F000FA01230F4826
:1005B40003A9CDE90544CDE9033300F02FF90B4C31
:1005C40000220121204600F0F1F94FF47A7000F086
:1005D400B9F801222046114600F0E8F94FF47A7088
:1005E40000F0B0F8ECE700BF003802400000024021
:1005F40082B00C4B002100915A6C42F480425A6440
:100604005A6C02F480420092009A01911A6C42F0F2
:1006140080521A641B6C03F080530193019B02B057
:10062400704700BF00380240FEE7FEE7FEE7FEE742
:10063400FEE770477047704700F072B8034AD2F87B
:10064400883043F47003C2F88830704700ED00E04E
:10065400DFF834D00D480E490E4A002302E0D45886
:10066400C4500433C4188C42F9D30B4A0B4C0023F6
:1006740001E013600432A242FBD3FFF7DFFF00F076
:1006840015FCFFF76DFF704700800120000000207B
:100694000C000020400F00080C0000202C0000205B
:1006A400FEE7000038B50E4A0E4B054618784FF4A5
:1006B4007A73B3FBF0F31068B0FBF3F000F09AF830
:1006C400044658B90F2D09D8024629464FF0FF3089
:1006D40000F05EF8044B20461D6038BD0120FCE7A5
:1006E40000000020040000200800002008B50B4B87
:1006F4001A6842F400721A601A6842F480621A603E
:100704001A6842F480721A60032000F02FF80F2058
:10071400FFF7C8FFFFF76CFF002008BD003C024054
:10072400034A044B11681B780B441360704700BFE5
:100734002800002004000020014B1868704700BF07
:100744002800002038B50446FFF7F6FF631C1CBFE1
:10075400054B1B78054618BFE418FFF7EDFF431B54
:10076400A342FAD338BD00BF040000200749CA6879
:1007740022F4E0620302120403F4E063120C134354
:1007840043F0BF6343F40033CB60704700ED00E0F7
:10079400164B30B5DC68C4F30224C4F10705231DED
:1007A400042D28BF0425062B4FF0FF338CBF033CD8
:1007B400002403FA05F521EA0501A34022EA030215
:1007C400A140002841EA0203ACBF00F16040084A9E
:1007D4004FEA0313B8BF00F00F00DBB2AABF00F565
:1007E4006140135480F8003330BD00BF00ED00E0D9
:1007F40014ED00E00138B0F1807F0BD24FF0E0231C
:10080400054A5861F02182F82310002007229861DC
:100814001A6170470120704700ED00E02DE9F74FA1
:10082400DFF884915E4A00230D6801249C4004EAA9
:10083400050CAC4340F0A5804D6805F003044FEA75
:1008440043080326671E06FA08F6012F6FEA060618
:1008540034D8876807EA060ECF6807FA08F747EA2C
:100864000E078760476827EA0C0EC5F300179F4000
:1008740047EA0E074760C76807EA060E8F6807FA5B
:1008840008F747EA0E07022CC76019D14FEAD30ACA
:1008940000EB8A0A03F0070BDAF820704FEA8B0B9F
:1008A4004FF00F0E0EFA0BFE27EA0E0E0F6907FA31
:1008B4000BF747EA0E07CAF8207001E0032CDAD1DF
:1008C400076804FA08F43E40264315F4403F0660E6
:1008D40057D04FF0000ACDF804A0D9F84460314C49
:1008E40046F48046C9F84460D9F8446006F480466A
:1008F4000196019E23F0030606F1804606F59C3618
:1009040003F0030ED6F808804FEA8E0E0F2707FA7D
:100914000EF7A04228EA07073AD004F58064A04203
:1009240038D004F58064A04236D004F58064A04237
:1009340034D004F58064A0420CBF0424072404FAD4
:100944000EF43C43B46094686FEA0C06EF0254BFA3
:1009540034404CEA04049460D468AF0254BF344079
:100964004CEA0404D4605468AF0354BF34404CEAE6
:10097400040454601468ED0354BF34404CEA040486
:1009840014600133102B7FF44FAF03B0BDE8F08F38
:100994005446D4E70124D2E70224D0E70324CEE767
:1009A400003C014000000240003802400AB181616D
:1009B40070470904FBE700002DE9F341044640B306
:1009C4000368DD0710D4236898075ED423681A07E8
:1009D40000F1A08023685B0700F1C080A0690028B3
:1009E40040F0288100202BE08F4B9A6802F00C0223
:1009F400042A07D09A6802F00C02082A0BD15A681C
:100A0400510208D5884B1B689A03DCD56368002B18
:100A1400D9D1012014E06268B2F5803F13D11A687D
:100A240042F480321A60FFF787FE7F4E0546336832
:100A34009B03C8D4FFF780FE401B6428F7D903202A
:100A440002B0BDE8F081784DB2F5A02F2B6807D134
:100A540043F480232B602B6843F480332B60E2E75C
:100A640023F480332B602B6823F480232B60002A2B
:100A7400D9D1FFF761FE06462B689F03A3D5FFF784
:100A84005BFE801B6428F7D9D9E7674B9A6812F09C
:100A94000C0F07D09A6802F00C02082A11D15B6887
:100AA4005E020ED4604A13689D0702D5E368012BE9
:100AB400AFD11368216923F0F80343EAC10313603B
:100AC40084E7E268594BB2B101221A60FFF734FEA1
:100AD400554D06462B68980707D52B68226923F0E5
:100AE400F80343EAC2032B6070E7FFF725FE801B7F
:100AF4000228EFD9A3E71A60FFF71EFE4A4E054607
:100B0400336899077FF562AFFFF716FE401B022892
:100B1400F6D994E76269454B82B10122C3F8802E6D
:100B2400FFF70AFE404E0546736F9F073FF552AF2D
:100B3400FFF702FE401B0228F6D980E7C3F8802E97
:100B4400FFF7FAFD384E0546736F98077FF542AFFD
:100B5400FFF7F2FD401B0228F6D970E7324B1A6CFE
:100B640012F0805228D101921A6C42F080521A6419
:100B74001B6C03F080530193019B01272C4D2B68C0
:100B8400D9051BD5A368284D012B27D12B6F43F022
:100B940001032B67FFF7D0FD234E054641F2883849
:100BA400336F9B0739D5002F3FF418AF1E4A136CDF
:100BB40023F08053136411E70027DFE72B6843F425
:100BC40080732B60FFF7B8FD06462B68DA05D9D48D
:100BD400FFF7B2FD801B0228F7D930E7052B04D1BB
:100BE4002B6F43F004032B67D0E72A6F22F0010236
:100BF4002A672A6F22F004022A67002BCAD1FFF762
:100C04009BFD41F2883806462B6F9807CBD5FFF73A
:100C140093FD801B4045F7D911E7FFF78DFD401B7D
:100C24004045BDD90BE700BF0038024000004742F1
:100C340000700040364DAB6803F00C03082B3DD028
:100C4400344B002202281A662BD1FFF775FD0646A5
:100C54002B6899011FD4D4E907321343626A43EA2B
:100C64008213E26A43EA0263A26A5208013A43EA3F
:100C740002436B60274B264D01221A66FFF75CFD89
:100C840004462B689A013FF5ADAEFFF755FD001BF6
:100C94000228F6D9D3E6FFF74FFD801B0228D7D9E7
:100CA400CDE6FFF749FD04462B689B017FF59AAE1C
:100CB400FFF742FD001B0228F6D9C0E601283FF4E5
:100CC400BFAE6B68E26903F4800191427FF4A1AE88
:100CD400216A03F03F028A427FF49BAE616A47F6C1
:100CE400C0721A40B2EB811F7FF493AEA26A52081D
:100CF40003F44031013AB1EB024F7FF48AAEE26A69
:100D040003F07063B3EB026F3FF46CAE81E600BF97
:100D14000038024000004742134908B58B6803F0CD
:100D24000C03042B1CD0082B1CD14A684B6849685F
:100D340013F4800314BF0D480D48C1F3881118BF84
:100D4400002302F03F02A1FB0001FFF741FA064B2A
:100D54005B68C3F3014301335B00B0FBF3F008BDF0
:100D64000248FCE70248FAE70038024040787D0177
:100D74000024F4002DE9F0410D46044610B9012089
:100D8400BDE8F081444B1A6802F007028A4228D376
:100D9400226897072DD4D00741D43F4B1A6802F03C
:100DA4000702AA4266D8226851076CD4130707D5F4
:100DB4003A4A2169936823F4604343EAC103936088
:100DC400FFF7AAFF354B364A9B68C3F30313D35C82
:100DD400D840344B1860344B1868FFF763FC00208C
:100DE400CEE7CAB21A701B6803F007038B42C6D160
:100DF400CEE72A4B12F0040F1EBF996841F4E0516C
:100E04009960160742BF996841F46041996023498B
:100E1400A0688B6823F0F00303438B60BBE7626830
:100E24001E4B012A1CD11B6813F4003FA7D01B4E94
:100E3400B36823F003031343B360FFF77DFC41F26F
:100E440088380746B368626803F00C03B3EB820F7B
:100E5400A3D0FFF771FCC01B4045F3D903208FE7F3
:100E6400911E01291B6802D813F0007FDEE713F0FE
:100E7400020FDBE7EAB21A701B6803F00703AB4208
:100E84007FF47DAF8FE70549E0688B6823F4E05376
:100E940003438B608AE700BF003C024000380240F5
:100EA400200F0008000000200800002070B50D4D40
:100EB4000D4C641BA4100026A64209D10B4D0C4C0A
:100EC40000F020F8641BA4100026A64205D170BDD2
:100ED40055F8043B98470136EEE755F8043B98472C
:100EE4000136F2E7380F0008380F0008380F000801
:100EF4003C0F000802440346934200D1704703F8B4
:100F0400011BF9E7F8B500BFF8BC08BC9E46704762
:0C0F1400F8B500BFF8BC08BC9E46704752
:100F20000000000000000000010203040607080999
:080F3000D4F2FF7F0100000074
:040F3800B9010008F3
:040F3C009501000813
:0C0F40000024F40001000000100000007C
:040000050800065594
:00000001FF
